:1000000013C048C047C046C045C044C043C042C0FA
:1000100041C040C03FC078C03EC062C09FC03AC02F
:1000200039C0E5C037C03B0111241FBECFE5D4E085
:10003000DEBFCDBF93E097BB18BA14BA80E385BB8F
:100040008FEF81BB12BA1BB81AB88EE880BD90BD85
:1000500080E489B987B910E0A0E6B0E0ECE7F3E00E
:1000600002C005900D92A636B107D9F710E0A6E6BA
:10007000B0E001C01D92AB38B107E1F710E0C8E273
:10008000D0E003C02297FE0173D1C632D107D1F769
:10009000F6D072C1B5CF1F920F920FB60F921124F6
:1000A0008F939F93EF93FF939091720080917300D1
:1000B000981760F480917200E82FF0E0EC58FF4F41
:1000C00090819CB98F5F8093720001C05598FF9119
:1000D000EF919F918F910F900FBE0F901F901895E9
:1000E0001F920F920FB60F9211248F938AB1877BC4
:1000F0008AB98AB180698AB9109272008F910F9083
:100100000FBE0F901F9018951F920F920FB60F926F
:1001100011242F938F939F93EF93FF938BB12CB167
:100120008C7191F488B392E0892788BB809172002A
:10013000843150F480917200E82FF0E0EC58FF4FCA
:1001400020838F5F80937200FF91EF919F918F9139
:100150002F910F900FBE0F901F9018951F920F9226
:100160000FB60F9211242F933F934F935F936F938A
:100170007F938F939F93AF93BF93EF93FF93809160
:100180008A0090E0FC01EE0FFF1FEA59FF4F40810B
:10019000518124B135B1240F351F66E0569547953E
:1001A0006A95E1F7241B350B31832083019666E0C5
:1001B00070E0B5D080938A0097B1E0E6F0E0E80FF8
:1001C000F11D987F8081980F97B9369AFF91EF9132
:1001D000BF91AF919F918F917F916F915F914F915F
:1001E0003F912F910F900FBE0F901F9018951F9267
:1001F0000F920FB60F9211248F939F9381B190E0CD
:10020000887F907088329105B9F0893291054CF45D
:1002100080319105C9F08831910599F00897F9F47A
:100220000DC080359105A9F088359105B1F0803475
:100230009105A9F485EC17C085EA15C08091880066
:1002400006C013B885E80FC080918800816083B92B
:10025000F9CF83B180938900F5CF84E904C08CE99C
:100260008093890084E886BF9F918F910F900FBE85
:100270000F901F90189588E890E068E438C0789453
:1002800087B1887F87B98FEC86B98AB180698AB9CE
:1002900010927200C0E9D1E010E188E890E033D01C
:1002A00080ED97E0FE013197F1F70197D9F7A6E6C7
:1002B000B0E0E4E7F0E08D919D9126E0969587957A
:1002C0002A95E1F790838183329680E0A237B807C0
:1002D00091F788E890E020D08F5F809381001092A2
:1002E0007200109373008AB188668AB9D6CFFC0178
:1002F00086EC80B981E081B985E886BF660F6083AE
:100300008CE9818308952CE9FC01218306B607FC62
:1003100002C085EA86BF0895FC018181089597FB9C
:10032000092E07260AD077FD04D00CD006D0002075
:100330001AF4709561957F4F0895F6F79095819521
:100340009F4F0895AA1BBB1B51E107C0AA1FBB1FEB
:10035000A617B70710F0A61BB70B881F991F5A9551
:10036000A9F780959095BC01CD010895EE0FFF1F70
:0C0370000590F491E02D0994F894FFCF63
:06037C0000010203060768
:00000001FF
