:1000000012C03CC03BC03AC039C038C037C036C04F
:1000100035C034C033C078C03EC062C09FC02EC05F
:100020002DC02CC02BC011241FBECFE5D4E0DEBFF5
:10003000CDBF93E097BB18BA14BA15BA8FEF81BB46
:1000400012BA1BB81AB88EE880BD90BD80E489B999
:1000500087B910E0A0E6B0E0E0E4F2E002C005906D
:100060000D92A636B107D9F710E0A6E6B0E001C0C0
:100070001D92A938B107E1F702D0E0C0C1CF789452
:1000800087B1887F87B98FEC86B98AB180698AB9D0
:1000900010927200FFCF1F920F920FB60F92112491
:1000A0008F939F93EF93FF939091720080917300D1
:1000B000981760F480917200E82FF0E0EC58FF4F41
:1000C00090819CB98F5F8093720001C05598FF9119
:1000D000EF919F918F910F900FBE0F901F901895E9
:1000E0001F920F920FB60F9211248F938AB1877BC4
:1000F0008AB98AB180698AB9109272008F910F9083
:100100000FBE0F901F9018951F920F920FB60F926F
:1001100011242F938F939F93EF93FF938BB12CB167
:100120008C7191F488B392E0892788BB809172002A
:10013000843150F480917200E82FF0E0EC58FF4FCA
:1001400020838F5F80937200FF91EF919F918F9139
:100150002F910F900FBE0F901F9018951F920F9226
:100160000FB60F9211242F933F934F935F936F938A
:100170007F938F939F93AF93BF93EF93FF93809160
:10018000880090E0FC01EE0FFF1FEA59FF4F40810D
:10019000518124B135B1240F351F66E0569547953E
:1001A0006A95E1F7241B350B31832083019666E0C5
:1001B00070E01DD08093880097B1E0E6F0E0E80F92
:1001C000F11D987F8081980F97B9369AFF91EF9132
:1001D000BF91AF919F918F917F916F915F914F915F
:1001E0003F912F910F900FBE0F901F90189597FB86
:1001F000092E07260AD077FD04D00CD006D00020A7
:100200001AF4709561957F4F0895F6F79095819552
:100210009F4F0895AA1BBB1B51E107C0AA1FBB1F1C
:10022000A617B70710F0A61BB70B881F991F5A9582
:10023000A9F780959095BC01CD010895F894FFCF62
:06024000000102030607A5
:00000001FF
