:1000000013C048C047C046C045C044C043C042C0FA
:1000100041C040C03FC0D2C098C0BCC0F5C03AC0CB
:1000200039C03BC137C0910111241FBECFE5D4E0D8
:10003000DEBFCDBF93E097BB18BA14BA80E385BB8F
:1000400082E081BB82BB1BB81AB88EE880BD90BD30
:1000500080E489B987B910E0A0E6B0E0E2E8F4E016
:1000600002C005900D92A636B107D9F710E0A6E6BA
:10007000B0E001C01D92AE38B107E1F710E0C8E270
:10008000D0E003C02297FE01F6D1C632D107D1F7E6
:100090004CD1F5C1B5CF98B322E0922798BB882305
:1000A00021F490918D00943118F010928D000895F4
:1000B000E92FF0E0EB58FF4F6083913059F0913019
:1000C00028F0923061F09330C1F40BC06535E1F552
:1000D00081E010C06A3AC1F520938D00089583E055
:1000E00009C0862F8C5F80938C00843110F484E0EB
:1000F00001C080E080938D00089580918C00981756
:1001000040F092E020E0A82FB0E0AD014250504016
:1001100009C09F5F90938D000895EB58FF4F808139
:10012000280F9F5FE92FF0E0E417F507B4F3AC5810
:10013000BF4F8C91821731F481E0809374008AB1B3
:100140008F768AB910928D0008951F920F920FB684
:100150000F9211248F939F93EF93FF9390917200CE
:1001600080917300981760F480917200E82FF0E09E
:10017000EB58FF4F90819CB98F5F8093720001C054
:100180005598FF91EF919F918F910F900FBE0F9017
:100190001F9018951F920F920FB60F9211248F93F4
:1001A0008AB1877B8AB98AB180698AB91092720054
:1001B0008F910F900FBE0F901F9018951F920F9266
:1001C0000FB60F9211242F933F934F935F936F932A
:1001D0007F938F939F93AF93BF93EF93FF938BB1D5
:1001E0006CB18C7158DFFF91EF91BF91AF919F91EE
:1001F0008F917F916F915F914F913F912F910F90D0
:100200000FBE0F901F9018951F920F920FB60F926E
:1002100011242F933F934F935F936F937F938F930B
:100220009F93AF93BF93EF93FF9380918B0090E0E8
:10023000FC01EE0FFF1FEA59FF4F4081518124B1AD
:1002400035B1240F351F66E0569547956A95E1F75D
:10025000241B350B31832083019666E070E0E2D0E9
:1002600080938B0097B1E0E6F0E0E80FF11D987FF6
:100270008081980F97B9369AFF91EF91BF91AF9116
:100280009F918F917F916F915F914F913F912F91AE
:100290000F900FBE0F901F9018951F920F920FB6E0
:1002A0000F9211248F939F9381B190E0887F90707B
:1002B00088329105B9F0893291054CF4803191056D
:1002C000C9F08831910599F00897F9F40DC080358F
:1002D0009105A9F088359105B1F080349105A9F414
:1002E00085EC17C085EA15C08091890006C013B857
:1002F00085E80FC080918900816083B9F9CF83B10F
:1003000080938A00F5CF84E904C08CE980938A0049
:1003100081E886BF9F918F910F900FBE0F901F9025
:10032000189589E890E068E465C0789487B1887F83
:1003300087B98FEC86B98AB180698AB91092720048
:1003400045E5E42E3AEAF32E0EE013E1C0E4DCE9E1
:1003500080917400882309F446C08091770083302F
:1003600009F03FC0E0927500F0927600809377002C
:1003700010927800A6E6B0E0E9E7F0E08D919D915B
:1003800026E0969587952A95E1F7808391833296AA
:1003900080E0A237B80791F789E890E040D08093D9
:1003A00085001092860080917800282F30E02F5F22
:1003B0003F4F40E090E005C0EB58FF4F8281480F6F
:1003C0009F5FE92FF0E02E173F07B4F70093780006
:1003D0004093870010927200109373008AB1886670
:1003E0008AB91092740089E890E010D0CE0101978C
:1003F000F1F7AECFFC0186EC80B981E081B985E8E8
:1004000086BF660F60838CE9818308952CE9FC0127
:10041000218306B607FC02C085EA86BF0895FC0169
:100420008181089597FB092E07260AD077FD04D015
:100430000CD006D000201AF4709561957F4F089576
:10044000F6F7909581959F4F0895AA1BBB1B51E12C
:1004500007C0AA1FBB1FA617B70710F0A61BB70B34
:10046000881F991F5A95A9F780959095BC01CD01D9
:100470000895EE0FFF1F0590F491E02D0994F89474
:02048000FFCFAC
:0604820000010203060761
:00000001FF
